:0600000000F044EF00F0E7
:10000800FFFF3A82FACF1FF0FBCF20F0E9CF21F0B3
:10001800EACF22F0E1CF23F0E2CF24F0D9CF25F0C8
:10002800DACF26F0F3CF27F0F4CF28F0F6CF29F077
:10003800F7CF2AF0F8CF2BF0F5CF2CF09EBC96EC3A
:1000480004F02CC0F5FF2BC0F8FF2AC0F7FF29C029
:10005800F6FF28C0F4FF27C0F3FF26C0DAFF25C04B
:10006800D9FF24C0E2FF23C0E1FF22C0EAFF21C07C
:10007800E9FF20C0FBFF1FC0FAFF3A921100FFFF03
:0400880094EF06F0FB
:1006000000414443313A00414443323A0000FFFF85
:100610001A6E20EE2DF010EE15F0040EDBCFE3FF86
:10062000E806FCE2040E1C6E000E1B6E11C00AF000
:100630001A504FEC06F013AE13D0010E056E2D0EBE
:10064000FEEC03F012C001F013C002F0FF0E046EC6
:100650000368CBEC06F001C012F002C013F02BD0FF
:10066000FFFF010E056E200EFEEC03F024D0FFFF0D
:100670001C50010D150EF324D96E000EF420DA6E15
:1006800012C001F013C002F0000E046E0A0E036ED9
:10069000E1EC04F00150DF6E12C001F013C002F073
:1006A000000E046E0A0E036E4AEC04F001C012F054
:1006B00002C013F01C06FFFF12501310D8A4D7D7A6
:1006C0001450D8B403D00FD0FFFF1B2AFFFF1B50DC
:1006D000010D150EF324D96E000EF420DA6EDF50F2
:1006E000D8A406D0F1D7FFFF14500008050F1B6EE9
:1006F000FFFF1BC01CF0FFFF040E1C6401D011D0D3
:10070000FFFF010E056E1C50010D150EF324D96E6E
:10071000000EF420DA6EDF50300FFEEC03F01C2ADE
:10072000EAD7FFFF1200FFFFFFFF0001676F67C0FE
:1007300066F000016739F00BF00B0001656FF00EF9
:1007400000016617050E0001686F00016651000187
:100750006813000168511EEC07F0000164510001AC
:10076000D8A406D000016891000168511EEC07F082
:10077000FFFF00016405D8A406D0000168810001D4
:1007800068511EEC07F0FFFF00016851B3EC06F062
:10079000010E0001616F000E606FF2EC06F0050EB5
:1007A0000001686F00016551000168130001685184
:1007B0001EEC07F0000164510001D8A406D000012E
:1007C0006891000168511EEC07F0FFFF000164050D
:1007D000D8A406D000016881000168511EEC07F022
:1007E000FFFF00016851B3EC06F0010E0001616FDC
:1007F000000E606FF2EC06F01200FFFFFFFF086EC4
:1008000008C007F00838F00BF00B066EF00E071664
:10081000050E096E07500912095032EC07F0055019
:10082000D8A404D00990095032EC07F0FFFF05046A
:10083000D8A404D00980095032EC07F0FFFF09501A
:10084000E0EC06F0010E026E000E016E03EC07F004
:10085000050E096E06500912095032EC07F00550DA
:10086000D8A404D00990095032EC07F0FFFF05042A
:10087000D8A404D00980095032EC07F0FFFF0950DA
:10088000E0EC06F0010E026E000E016E03EC07F0C4
:100890001200FFFFFFFF000E066E04AE06D0036CD1
:1008A000041ED8B0042A010E066EFFFF02AE06D069
:1008B000016C021ED8B0022A010E061AFFFF000EBC
:1008C000086E000E076E03500410D8B420D0010E3D
:1008D000056E05D0FFFFD89003360436052AFFFFCA
:1008E00004AEF8D7FFFFD890073608360350015CF6
:1008F00004500258D8A005D00350015E0450025A9B
:100900000780FFFFD89004320332052EEBD7FFFF9C
:100910000650D8B404D0076C081ED8B0082AFFFFD0
:1009200007C001F008C002F01200FFFFFFFF030E36
:100930001D6E6F0EFFFFE82EFDD71D2EFBD7000E9C
:10094000F8EC05F001C034F002C035F0010E116E74
:1009500034C012F035C013F0040E146E060E07EC0E
:1009600003F0010E1E6EF40E1D6EA80EFFFFE82EA2
:10097000FDD71D2EFBD71E2EF9D700D0010EF8ECA7
:1009800005F001C032F002C033F0020E116E32C029
:1009900012F033C013F0040E146E060E07EC03F0D1
:1009A000010E1E6EF40E1D6EA80EFFFFE82EFDD781
:1009B0001D2EFBD71E2EF9D700D09E9CC28412009C
:1009C000FFFFFFFF000E066E02AE06D0016C021E96
:1009D000D8B0022A010E066EFFFF04AE04D0036CED
:1009E000041ED8B0042AFFFF03500410D8B41CD052
:1009F000010E056E05D0FFFFD89003360436052A98
:100A0000FFFF04AEF8D7FFFF0350015C045002580B
:100A1000D8A004D00350015E0450025AFFFFD890C2
:100A200004320332052EEFD7FFFF0650D8B404D0AE
:100A3000016C021ED8B0022AFFFF01C001F002C003
:100A400002F01200FFFFFFFF939881985EEC05F023
:100A5000010E0001696F010E24EC06F0010E000189
:100A6000696F060E00016A6F74EC06F0020E000159
:100A7000696F010E24EC06F0070E0001696F060E87
:100A800000016A6F74EC06F028EC07F09E9C9D8CC8
:100A9000F28CF28EC284FFFF8178050E0001716F27
:100AA000C30E0001706F4E0EFFFFE82EFDD7702FB2
:100AB000FBD7712FF9D700D000F0EDD7FFFFA00EC4
:100AC0000001606F860E616F010E626F000E636F32
:100AD00011EC07F0000E0001616F0F0E606FF2EC79
:100AE00006F0000E0001646F280E94EC03F0000E77
:100AF0000001646F060E94EC03F0000E0001646FB9
:100B0000020E94EC03F0000E0001646F010E94ECF1
:100B100003F0000E0001646F0A0E94EC03F0000E67
:100B20000001646F0E0E94EC03F01200FFFFFFFF54
:100B30000001616FFFFFC7B4FDD7C5CF60F01F0E86
:100B400000016017D8A4F6D7C580FFFFC7B4FDD752
:100B5000C5CF60F01F0E00016017D8A4F6D74E0E67
:100B6000C96EFFFFC7B4FDD7C5CF60F01F0E0001EF
:100B70006017D8A4F6D761C0C9FFFFFFC7B4FDD77F
:100B8000C5CF60F01F0E00016017D8A4F6D7C5844A
:100B90001200FFFFFFFF026EFFFFC7B4FDD7C5CFF6
:100BA00001F01F0E0116D8A4F7D7C580FFFFC7B408
:100BB000FDD7C5CF01F01F0E0116D8A4F7D74E0EF2
:100BC000C96EFFFFC7B4FDD7C5CF01F01F0E0116D8
:100BD000D8A4F7D702C0C9FFFFFFC7B4FDD7C5CF60
:100BE00001F01F0E0116D8A4F7D7C5841200FFFF2D
:100BF000FFFF056E070E056405D0000E026E000EA5
:100C0000016E1FD0FFFF05C003F0D8900336D890C7
:100C10000336D8900336C250C50B0310C26E0D0EBA
:100C2000036E2E0EFFFFE82EFDD7032EFBD7C284E6
:100C3000C450046E036AC3500324016E000E0420E6
:100C4000026EFFFF1200FFFFFFFF00016F6F36C053
:100C50006BF037C06CF038C06DF039C06EF0100E1C
:100C600000016F6501D018D0FFFF000E0001646F16
:100C700069C06AF0FF0E00016A2700016A51010D88
:100C80006B0EF324D96E000EF420DA6EDF500001F3
:100C90006F257F0F94EC03F0FFFF1200FFFFFFFFB3
:100CA000106E36C00CF037C00DF038C00EF039C0F1
:100CB0000FF0100E106401D014D0FFFF000E056E6F
:100CC0000AC00BF0FF0E0B260B50010D0C0EF32487
:100CD000D96E000EF420DA6EDF5010247F0FFEEC88
:100CE00003F0FFFF1200FFFFFFFF10D0FFFF010E18
:100CF0000001646F69C0F6FF6AC0F7FF0800FFFFDC
:100D0000F55094EC03F00001694B6A2BFFFF69C0BA
:100D1000F6FF6AC0F7FF0800FFFFF5500009D8B4DE
:100D20001200FFFFE3D7FFFF740EF66E0E0EF76E94
:100D3000000EF86E00EE36F010EE04F00900F5CF6C
:100D4000EEFFE550E150FAE100EE2DF0090EEE6AFB
:100D5000E806FDE13A903A92000EF86E060EF76E44
:100D6000000123EF05F0FFFF0001636F00016385C1
:100D7000000163511EEC07F0000E0001616F100EC0
:100D8000606FF2EC06F000016395000163511EEC08
:100D900007F01200FFFFFFFF01500302F3CF05F041
:100DA000F4CF06F001500402F3500626025003026D
:100DB000F350062605C001F006C002F01200FFFF46
:100DC000FFFF046E0484045032EC07F0000E026E44
:100DD000100E016E03EC07F00494045032EC07F09F
:100DE0001200FFFFFFFF05D0FFFF00016007D8A042
:100DF0006107FFFF0001605100016111D8B41200CA
:100E0000FFFFF2D7FFFFFFFF04D0FFFF0106D8A0CE
:100E10000206FFFF01500210D8B41200FFFFF5D701
:100E2000FFFFFFFF280EC66E000EC56E180EC86EBF
:100E3000000EC76E948694881200FFFFFFFF00012A
:100E4000626F00016251080997EC05F01200FFFF84
:100E5000FFFF928092829286810EC26EC50EC16E95
:100E60001200FFFFFFFF036E03500809CAEC05F0F4
:0A0E70001200FFFF00401454FFFFC2
:020000040020DA
:08000000FFFFFFFFFFFFFFFF00
:020000040030CA
:04000000FF22030ECA
:0800060080FF0FC00FE00F4066
:00000001FF
